{
  "_format": "hh-sol-artifact-1",
  "contractName": "MessagingApp",
  "sourceName": "contracts/MessagingApp.sol",
  "abi": [
    {
      "inputs": [],
      "stateMutability": "nonpayable",
      "type": "constructor"
    },
    {
      "anonymous": false,
      "inputs": [
        {
          "indexed": true,
          "internalType": "address",
          "name": "sender",
          "type": "address"
        },
        {
          "indexed": true,
          "internalType": "address",
          "name": "receiver",
          "type": "address"
        },
        {
          "indexed": true,
          "internalType": "uint256",
          "name": "messageId",
          "type": "uint256"
        }
      ],
      "name": "MessageRead",
      "type": "event"
    },
    {
      "anonymous": false,
      "inputs": [
        {
          "indexed": true,
          "internalType": "address",
          "name": "sender",
          "type": "address"
        },
        {
          "indexed": true,
          "internalType": "address",
          "name": "receiver",
          "type": "address"
        },
        {
          "indexed": true,
          "internalType": "uint256",
          "name": "messageId",
          "type": "uint256"
        },
        {
          "indexed": false,
          "internalType": "uint256",
          "name": "timestamp",
          "type": "uint256"
        }
      ],
      "name": "MessageSent",
      "type": "event"
    },
    {
      "anonymous": false,
      "inputs": [
        {
          "indexed": true,
          "internalType": "address",
          "name": "receiver",
          "type": "address"
        },
        {
          "indexed": true,
          "internalType": "uint256",
          "name": "messageId",
          "type": "uint256"
        },
        {
          "indexed": false,
          "internalType": "uint256",
          "name": "timestamp",
          "type": "uint256"
        }
      ],
      "name": "NotificationSent",
      "type": "event"
    },
    {
      "inputs": [],
      "name": "getAllChatsReceiver",
      "outputs": [
        {
          "internalType": "address[]",
          "name": "",
          "type": "address[]"
        }
      ],
      "stateMutability": "view",
      "type": "function"
    },
    {
      "inputs": [],
      "name": "getAllChatsSender",
      "outputs": [
        {
          "internalType": "address[]",
          "name": "",
          "type": "address[]"
        }
      ],
      "stateMutability": "view",
      "type": "function"
    },
    {
      "inputs": [
        {
          "internalType": "address",
          "name": "_receiver",
          "type": "address"
        }
      ],
      "name": "getMessages",
      "outputs": [
        {
          "components": [
            {
              "internalType": "address",
              "name": "sender",
              "type": "address"
            },
            {
              "internalType": "address",
              "name": "receiver",
              "type": "address"
            },
            {
              "internalType": "string",
              "name": "content",
              "type": "string"
            },
            {
              "internalType": "uint256",
              "name": "timestamp",
              "type": "uint256"
            },
            {
              "internalType": "bool",
              "name": "isRead",
              "type": "bool"
            }
          ],
          "internalType": "struct MessagingApp.Message[]",
          "name": "",
          "type": "tuple[]"
        },
        {
          "components": [
            {
              "internalType": "address",
              "name": "sender",
              "type": "address"
            },
            {
              "internalType": "address",
              "name": "receiver",
              "type": "address"
            },
            {
              "internalType": "string",
              "name": "content",
              "type": "string"
            },
            {
              "internalType": "uint256",
              "name": "timestamp",
              "type": "uint256"
            },
            {
              "internalType": "bool",
              "name": "isRead",
              "type": "bool"
            }
          ],
          "internalType": "struct MessagingApp.Message[]",
          "name": "",
          "type": "tuple[]"
        }
      ],
      "stateMutability": "view",
      "type": "function"
    },
    {
      "inputs": [],
      "name": "getOwner",
      "outputs": [
        {
          "internalType": "address",
          "name": "",
          "type": "address"
        }
      ],
      "stateMutability": "view",
      "type": "function"
    },
    {
      "inputs": [
        {
          "internalType": "address",
          "name": "_address",
          "type": "address"
        }
      ],
      "name": "getProfile",
      "outputs": [
        {
          "components": [
            {
              "internalType": "string",
              "name": "nickname",
              "type": "string"
            },
            {
              "internalType": "uint8",
              "name": "idImage",
              "type": "uint8"
            }
          ],
          "internalType": "struct MessagingApp.Profile",
          "name": "",
          "type": "tuple"
        }
      ],
      "stateMutability": "view",
      "type": "function"
    },
    {
      "inputs": [
        {
          "internalType": "address",
          "name": "_receiver",
          "type": "address"
        },
        {
          "internalType": "string",
          "name": "_text",
          "type": "string"
        }
      ],
      "name": "sendMessage",
      "outputs": [],
      "stateMutability": "nonpayable",
      "type": "function"
    },
    {
      "inputs": [
        {
          "internalType": "string",
          "name": "_nickname",
          "type": "string"
        },
        {
          "internalType": "uint8",
          "name": "_idImage",
          "type": "uint8"
        }
      ],
      "name": "setProfile",
      "outputs": [],
      "stateMutability": "nonpayable",
      "type": "function"
    }
  ],
  "bytecode": "0x608060405234801561001057600080fd5b5033600660006101000a81548173ffffffffffffffffffffffffffffffffffffffff021916908373ffffffffffffffffffffffffffffffffffffffff160217905550611f33806100616000396000f3fe608060405234801561001057600080fd5b506004361061007d5760003560e01c8063893d20e81161005b578063893d20e8146100ee578063b2f713221461010c578063b320296a1461013d578063de6f24bb146101595761007d565b80630f53a4701461008257806314d76473146100b25780634ba1d2fb146100d0575b600080fd5b61009c600480360381019061009791906113c8565b610175565b6040516100a991906114de565b60405180910390f35b6100ba61027d565b6040516100c791906115be565b60405180910390f35b6100d8610439565b6040516100e591906115be565b60405180910390f35b6100f66105f5565b60405161010391906115ef565b60405180910390f35b610126600480360381019061012191906113c8565b61061f565b604051610134929190611776565b60405180910390f35b6101576004803603810190610152919061190e565b610b07565b005b610173600480360381019061016e919061196a565b610b9c565b005b61017d611339565b600560008373ffffffffffffffffffffffffffffffffffffffff1673ffffffffffffffffffffffffffffffffffffffff1681526020019081526020016000206040518060400160405290816000820180546101d7906119f5565b80601f0160208091040260200160405190810160405280929190818152602001828054610203906119f5565b80156102505780601f1061022557610100808354040283529160200191610250565b820191906000526020600020905b81548152906001019060200180831161023357829003601f168201915b505050505081526020016001820160009054906101000a900460ff1660ff1660ff16815250509050919050565b60606000600460003373ffffffffffffffffffffffffffffffffffffffff1673ffffffffffffffffffffffffffffffffffffffff1681526020019081526020016000208054905067ffffffffffffffff8111156102dd576102dc6117b7565b5b60405190808252806020026020018201604052801561030b5781602001602082028036833780820191505090505b50905060005b600460003373ffffffffffffffffffffffffffffffffffffffff1673ffffffffffffffffffffffffffffffffffffffff1681526020019081526020016000208054905081101561043157600460003373ffffffffffffffffffffffffffffffffffffffff1673ffffffffffffffffffffffffffffffffffffffff16815260200190815260200160002081815481106103ac576103ab611a26565b5b9060005260206000200160009054906101000a900473ffffffffffffffffffffffffffffffffffffffff168282815181106103ea576103e9611a26565b5b602002602001019073ffffffffffffffffffffffffffffffffffffffff16908173ffffffffffffffffffffffffffffffffffffffff16815250508080600101915050610311565b508091505090565b60606000600360003373ffffffffffffffffffffffffffffffffffffffff1673ffffffffffffffffffffffffffffffffffffffff1681526020019081526020016000208054905067ffffffffffffffff811115610499576104986117b7565b5b6040519080825280602002602001820160405280156104c75781602001602082028036833780820191505090505b50905060005b600360003373ffffffffffffffffffffffffffffffffffffffff1673ffffffffffffffffffffffffffffffffffffffff168152602001908152602001600020805490508110156105ed57600360003373ffffffffffffffffffffffffffffffffffffffff1673ffffffffffffffffffffffffffffffffffffffff168152602001908152602001600020818154811061056857610567611a26565b5b9060005260206000200160009054906101000a900473ffffffffffffffffffffffffffffffffffffffff168282815181106105a6576105a5611a26565b5b602002602001019073ffffffffffffffffffffffffffffffffffffffff16908173ffffffffffffffffffffffffffffffffffffffff168152505080806001019150506104cd565b508091505090565b6000600660009054906101000a900473ffffffffffffffffffffffffffffffffffffffff16905090565b6060808273ffffffffffffffffffffffffffffffffffffffff163373ffffffffffffffffffffffffffffffffffffffff1603610690576040517f08c379a000000000000000000000000000000000000000000000000000000000815260040161068790611ab2565b60405180910390fd5b6000803373ffffffffffffffffffffffffffffffffffffffff1673ffffffffffffffffffffffffffffffffffffffff16815260200190815260200160002060008473ffffffffffffffffffffffffffffffffffffffff1673ffffffffffffffffffffffffffffffffffffffff1681526020019081526020016000206000808573ffffffffffffffffffffffffffffffffffffffff1673ffffffffffffffffffffffffffffffffffffffff16815260200190815260200160002060003373ffffffffffffffffffffffffffffffffffffffff1673ffffffffffffffffffffffffffffffffffffffff16815260200190815260200160002081805480602002602001604051908101604052809291908181526020016000905b8282101561093c57838290600052602060002090600502016040518060a00160405290816000820160009054906101000a900473ffffffffffffffffffffffffffffffffffffffff1673ffffffffffffffffffffffffffffffffffffffff1673ffffffffffffffffffffffffffffffffffffffff1681526020016001820160009054906101000a900473ffffffffffffffffffffffffffffffffffffffff1673ffffffffffffffffffffffffffffffffffffffff1673ffffffffffffffffffffffffffffffffffffffff168152602001600282018054610886906119f5565b80601f01602080910402602001604051908101604052809291908181526020018280546108b2906119f5565b80156108ff5780601f106108d4576101008083540402835291602001916108ff565b820191906000526020600020905b8154815290600101906020018083116108e257829003601f168201915b50505050508152602001600382015481526020016004820160009054906101000a900460ff161515151581525050815260200190600101906107a7565b50505050915080805480602002602001604051908101604052809291908181526020016000905b82821015610af857838290600052602060002090600502016040518060a00160405290816000820160009054906101000a900473ffffffffffffffffffffffffffffffffffffffff1673ffffffffffffffffffffffffffffffffffffffff1673ffffffffffffffffffffffffffffffffffffffff1681526020016001820160009054906101000a900473ffffffffffffffffffffffffffffffffffffffff1673ffffffffffffffffffffffffffffffffffffffff1673ffffffffffffffffffffffffffffffffffffffff168152602001600282018054610a42906119f5565b80601f0160208091040260200160405190810160405280929190818152602001828054610a6e906119f5565b8015610abb5780601f10610a9057610100808354040283529160200191610abb565b820191906000526020600020905b815481529060010190602001808311610a9e57829003601f168201915b50505050508152602001600382015481526020016004820160009054906101000a900460ff16151515158152505081526020019060010190610963565b50505050905091509150915091565b60405180604001604052808381526020018260ff16815250600560003373ffffffffffffffffffffffffffffffffffffffff1673ffffffffffffffffffffffffffffffffffffffff1681526020019081526020016000206000820151816000019081610b739190611c7e565b5060208201518160010160006101000a81548160ff021916908360ff1602179055509050505050565b8173ffffffffffffffffffffffffffffffffffffffff163373ffffffffffffffffffffffffffffffffffffffff1603610c0a576040517f08c379a0000000000000000000000000000000000000000000000000000000008152600401610c0190611d9c565b60405180910390fd5b600073ffffffffffffffffffffffffffffffffffffffff168273ffffffffffffffffffffffffffffffffffffffff1603610c79576040517f08c379a0000000000000000000000000000000000000000000000000000000008152600401610c7090611e08565b60405180910390fd5b600080600090505b600360003373ffffffffffffffffffffffffffffffffffffffff1673ffffffffffffffffffffffffffffffffffffffff16815260200190815260200160002080549050811015610d8f573373ffffffffffffffffffffffffffffffffffffffff16600360003373ffffffffffffffffffffffffffffffffffffffff1673ffffffffffffffffffffffffffffffffffffffff1681526020019081526020016000208281548110610d3357610d32611a26565b5b9060005260206000200160009054906101000a900473ffffffffffffffffffffffffffffffffffffffff1673ffffffffffffffffffffffffffffffffffffffff1603610d825760019150610d8f565b8080600101915050610c81565b5060005b600460008573ffffffffffffffffffffffffffffffffffffffff1673ffffffffffffffffffffffffffffffffffffffff16815260200190815260200160002080549050811015610ea1573373ffffffffffffffffffffffffffffffffffffffff16600460008673ffffffffffffffffffffffffffffffffffffffff1673ffffffffffffffffffffffffffffffffffffffff1681526020019081526020016000208281548110610e4557610e44611a26565b5b9060005260206000200160009054906101000a900473ffffffffffffffffffffffffffffffffffffffff1673ffffffffffffffffffffffffffffffffffffffff1603610e945760019150610ea1565b8080600101915050610d93565b5080610fe857600460008473ffffffffffffffffffffffffffffffffffffffff1673ffffffffffffffffffffffffffffffffffffffff168152602001908152602001600020339080600181540180825580915050600190039060005260206000200160009091909190916101000a81548173ffffffffffffffffffffffffffffffffffffffff021916908373ffffffffffffffffffffffffffffffffffffffff160217905550600360003373ffffffffffffffffffffffffffffffffffffffff1673ffffffffffffffffffffffffffffffffffffffff168152602001908152602001600020839080600181540180825580915050600190039060005260206000200160009091909190916101000a81548173ffffffffffffffffffffffffffffffffffffffff021916908373ffffffffffffffffffffffffffffffffffffffff1602179055505b6000803373ffffffffffffffffffffffffffffffffffffffff1673ffffffffffffffffffffffffffffffffffffffff16815260200190815260200160002060008473ffffffffffffffffffffffffffffffffffffffff1673ffffffffffffffffffffffffffffffffffffffff1681526020019081526020016000206040518060a001604052803373ffffffffffffffffffffffffffffffffffffffff1681526020018573ffffffffffffffffffffffffffffffffffffffff16815260200184815260200142815260200160001515815250908060018154018082558091505060019003906000526020600020906005020160009091909190915060008201518160000160006101000a81548173ffffffffffffffffffffffffffffffffffffffff021916908373ffffffffffffffffffffffffffffffffffffffff16021790555060208201518160010160006101000a81548173ffffffffffffffffffffffffffffffffffffffff021916908373ffffffffffffffffffffffffffffffffffffffff16021790555060408201518160020190816111859190611c7e565b506060820151816003015560808201518160040160006101000a81548160ff021916908315150217905550505060016000803373ffffffffffffffffffffffffffffffffffffffff1673ffffffffffffffffffffffffffffffffffffffff16815260200190815260200160002060008573ffffffffffffffffffffffffffffffffffffffff1673ffffffffffffffffffffffffffffffffffffffff1681526020019081526020016000208054905061123d9190611e57565b8373ffffffffffffffffffffffffffffffffffffffff163373ffffffffffffffffffffffffffffffffffffffff167ffa00ffce6051230b4361a25cb8c6cf798674abf770922e7c08373265c95fc0274260405161129a9190611e9a565b60405180910390a4600160008473ffffffffffffffffffffffffffffffffffffffff1673ffffffffffffffffffffffffffffffffffffffff16815260200190815260200160002060003373ffffffffffffffffffffffffffffffffffffffff1673ffffffffffffffffffffffffffffffffffffffff168152602001908152602001600020600081548092919061132f90611eb5565b9190505550505050565b604051806040016040528060608152602001600060ff1681525090565b6000604051905090565b600080fd5b600080fd5b600073ffffffffffffffffffffffffffffffffffffffff82169050919050565b60006113958261136a565b9050919050565b6113a58161138a565b81146113b057600080fd5b50565b6000813590506113c28161139c565b92915050565b6000602082840312156113de576113dd611360565b5b60006113ec848285016113b3565b91505092915050565b600081519050919050565b600082825260208201905092915050565b60005b8381101561142f578082015181840152602081019050611414565b60008484015250505050565b6000601f19601f8301169050919050565b6000611457826113f5565b6114618185611400565b9350611471818560208601611411565b61147a8161143b565b840191505092915050565b600060ff82169050919050565b61149b81611485565b82525050565b600060408301600083015184820360008601526114be828261144c565b91505060208301516114d36020860182611492565b508091505092915050565b600060208201905081810360008301526114f881846114a1565b905092915050565b600081519050919050565b600082825260208201905092915050565b6000819050602082019050919050565b6115358161138a565b82525050565b6000611547838361152c565b60208301905092915050565b6000602082019050919050565b600061156b82611500565b611575818561150b565b93506115808361151c565b8060005b838110156115b1578151611598888261153b565b97506115a383611553565b925050600181019050611584565b5085935050505092915050565b600060208201905081810360008301526115d88184611560565b905092915050565b6115e98161138a565b82525050565b600060208201905061160460008301846115e0565b92915050565b600081519050919050565b600082825260208201905092915050565b6000819050602082019050919050565b6000819050919050565b61164981611636565b82525050565b60008115159050919050565b6116648161164f565b82525050565b600060a083016000830151611682600086018261152c565b506020830151611695602086018261152c565b50604083015184820360408601526116ad828261144c565b91505060608301516116c26060860182611640565b5060808301516116d5608086018261165b565b508091505092915050565b60006116ec838361166a565b905092915050565b6000602082019050919050565b600061170c8261160a565b6117168185611615565b93508360208202850161172885611626565b8060005b85811015611764578484038952815161174585826116e0565b9450611750836116f4565b925060208a0199505060018101905061172c565b50829750879550505050505092915050565b600060408201905081810360008301526117908185611701565b905081810360208301526117a48184611701565b90509392505050565b600080fd5b600080fd5b7f4e487b7100000000000000000000000000000000000000000000000000000000600052604160045260246000fd5b6117ef8261143b565b810181811067ffffffffffffffff8211171561180e5761180d6117b7565b5b80604052505050565b6000611821611356565b905061182d82826117e6565b919050565b600067ffffffffffffffff82111561184d5761184c6117b7565b5b6118568261143b565b9050602081019050919050565b82818337600083830152505050565b600061188561188084611832565b611817565b9050828152602081018484840111156118a1576118a06117b2565b5b6118ac848285611863565b509392505050565b600082601f8301126118c9576118c86117ad565b5b81356118d9848260208601611872565b91505092915050565b6118eb81611485565b81146118f657600080fd5b50565b600081359050611908816118e2565b92915050565b6000806040838503121561192557611924611360565b5b600083013567ffffffffffffffff81111561194357611942611365565b5b61194f858286016118b4565b9250506020611960858286016118f9565b9150509250929050565b6000806040838503121561198157611980611360565b5b600061198f858286016113b3565b925050602083013567ffffffffffffffff8111156119b0576119af611365565b5b6119bc858286016118b4565b9150509250929050565b7f4e487b7100000000000000000000000000000000000000000000000000000000600052602260045260246000fd5b60006002820490506001821680611a0d57607f821691505b602082108103611a2057611a1f6119c6565b5b50919050565b7f4e487b7100000000000000000000000000000000000000000000000000000000600052603260045260246000fd5b600082825260208201905092915050565b7f72656365697665722063616e206e6f7420626520796f757273656c6600000000600082015250565b6000611a9c601c83611a55565b9150611aa782611a66565b602082019050919050565b60006020820190508181036000830152611acb81611a8f565b9050919050565b60008190508160005260206000209050919050565b60006020601f8301049050919050565b600082821b905092915050565b600060088302611b347fffffffffffffffffffffffffffffffffffffffffffffffffffffffffffffffff82611af7565b611b3e8683611af7565b95508019841693508086168417925050509392505050565b6000819050919050565b6000611b7b611b76611b7184611636565b611b56565b611636565b9050919050565b6000819050919050565b611b9583611b60565b611ba9611ba182611b82565b848454611b04565b825550505050565b600090565b611bbe611bb1565b611bc9818484611b8c565b505050565b5b81811015611bed57611be2600082611bb6565b600181019050611bcf565b5050565b601f821115611c3257611c0381611ad2565b611c0c84611ae7565b81016020851015611c1b578190505b611c2f611c2785611ae7565b830182611bce565b50505b505050565b600082821c905092915050565b6000611c5560001984600802611c37565b1980831691505092915050565b6000611c6e8383611c44565b9150826002028217905092915050565b611c87826113f5565b67ffffffffffffffff811115611ca057611c9f6117b7565b5b611caa82546119f5565b611cb5828285611bf1565b600060209050601f831160018114611ce85760008415611cd6578287015190505b611ce08582611c62565b865550611d48565b601f198416611cf686611ad2565b60005b82811015611d1e57848901518255600182019150602085019450602081019050611cf9565b86831015611d3b5784890151611d37601f891682611c44565b8355505b6001600288020188555050505b505050505050565b7f43616e6e6f742073656e64206d65737361676520746f20796f757273656c6600600082015250565b6000611d86601f83611a55565b9150611d9182611d50565b602082019050919050565b60006020820190508181036000830152611db581611d79565b9050919050565b7f4e6f2074726f6c6c210000000000000000000000000000000000000000000000600082015250565b6000611df2600983611a55565b9150611dfd82611dbc565b602082019050919050565b60006020820190508181036000830152611e2181611de5565b9050919050565b7f4e487b7100000000000000000000000000000000000000000000000000000000600052601160045260246000fd5b6000611e6282611636565b9150611e6d83611636565b9250828203905081811115611e8557611e84611e28565b5b92915050565b611e9481611636565b82525050565b6000602082019050611eaf6000830184611e8b565b92915050565b6000611ec082611636565b91507fffffffffffffffffffffffffffffffffffffffffffffffffffffffffffffffff8203611ef257611ef1611e28565b5b60018201905091905056fea264697066735822122003ba3d8923d9de31e1e24a4104e8aeea1a9323fabd46326827669f0974383c8364736f6c63430008180033",
  "linkReferences": {},
  "deployedLinkReferences": {}
}