{
  "_format": "hh-sol-artifact-1",
  "contractName": "MessagingApp",
  "sourceName": "contracts/MessagingApp.sol",
  "abi": [
    {
      "inputs": [],
      "stateMutability": "nonpayable",
      "type": "constructor"
    },
    {
      "anonymous": false,
      "inputs": [
        {
          "indexed": true,
          "internalType": "address",
          "name": "sender",
          "type": "address"
        },
        {
          "indexed": true,
          "internalType": "address",
          "name": "receiver",
          "type": "address"
        },
        {
          "indexed": true,
          "internalType": "uint256",
          "name": "messageId",
          "type": "uint256"
        }
      ],
      "name": "MessageRead",
      "type": "event"
    },
    {
      "anonymous": false,
      "inputs": [
        {
          "indexed": true,
          "internalType": "address",
          "name": "sender",
          "type": "address"
        },
        {
          "indexed": true,
          "internalType": "address",
          "name": "receiver",
          "type": "address"
        },
        {
          "indexed": true,
          "internalType": "uint256",
          "name": "messageId",
          "type": "uint256"
        },
        {
          "indexed": false,
          "internalType": "uint256",
          "name": "timestamp",
          "type": "uint256"
        }
      ],
      "name": "MessageSent",
      "type": "event"
    },
    {
      "anonymous": false,
      "inputs": [
        {
          "indexed": true,
          "internalType": "address",
          "name": "receiver",
          "type": "address"
        },
        {
          "indexed": true,
          "internalType": "uint256",
          "name": "messageId",
          "type": "uint256"
        },
        {
          "indexed": false,
          "internalType": "uint256",
          "name": "timestamp",
          "type": "uint256"
        }
      ],
      "name": "NotificationSent",
      "type": "event"
    },
    {
      "inputs": [],
      "name": "getAllChatsReceiver",
      "outputs": [
        {
          "internalType": "address[]",
          "name": "",
          "type": "address[]"
        }
      ],
      "stateMutability": "view",
      "type": "function"
    },
    {
      "inputs": [],
      "name": "getAllChatsSender",
      "outputs": [
        {
          "internalType": "address[]",
          "name": "",
          "type": "address[]"
        }
      ],
      "stateMutability": "view",
      "type": "function"
    },
    {
      "inputs": [
        {
          "internalType": "address",
          "name": "_receiver",
          "type": "address"
        }
      ],
      "name": "getMessages",
      "outputs": [
        {
          "components": [
            {
              "internalType": "address",
              "name": "sender",
              "type": "address"
            },
            {
              "internalType": "address",
              "name": "receiver",
              "type": "address"
            },
            {
              "internalType": "string",
              "name": "content",
              "type": "string"
            },
            {
              "internalType": "uint256",
              "name": "timestamp",
              "type": "uint256"
            },
            {
              "internalType": "bool",
              "name": "isRead",
              "type": "bool"
            }
          ],
          "internalType": "struct MessagingApp.Message[]",
          "name": "",
          "type": "tuple[]"
        },
        {
          "components": [
            {
              "internalType": "address",
              "name": "sender",
              "type": "address"
            },
            {
              "internalType": "address",
              "name": "receiver",
              "type": "address"
            },
            {
              "internalType": "string",
              "name": "content",
              "type": "string"
            },
            {
              "internalType": "uint256",
              "name": "timestamp",
              "type": "uint256"
            },
            {
              "internalType": "bool",
              "name": "isRead",
              "type": "bool"
            }
          ],
          "internalType": "struct MessagingApp.Message[]",
          "name": "",
          "type": "tuple[]"
        }
      ],
      "stateMutability": "view",
      "type": "function"
    },
    {
      "inputs": [],
      "name": "getOwner",
      "outputs": [
        {
          "internalType": "address",
          "name": "",
          "type": "address"
        }
      ],
      "stateMutability": "view",
      "type": "function"
    },
    {
      "inputs": [
        {
          "internalType": "address",
          "name": "_receiver",
          "type": "address"
        },
        {
          "internalType": "string",
          "name": "_text",
          "type": "string"
        }
      ],
      "name": "sendMessage",
      "outputs": [],
      "stateMutability": "nonpayable",
      "type": "function"
    }
  ],
  "bytecode": "0x608060405234801561001057600080fd5b5033600560006101000a81548173ffffffffffffffffffffffffffffffffffffffff021916908373ffffffffffffffffffffffffffffffffffffffff160217905550611b29806100616000396000f3fe608060405234801561001057600080fd5b50600436106100575760003560e01c806314d764731461005c5780634ba1d2fb1461007a578063893d20e814610098578063b2f71322146100b6578063de6f24bb146100e7575b600080fd5b610064610103565b60405161007191906111ab565b60405180910390f35b6100826102bf565b60405161008f91906111ab565b60405180910390f35b6100a061047b565b6040516100ad91906111dc565b60405180910390f35b6100d060048036038101906100cb9190611237565b6104a5565b6040516100de929190611460565b60405180910390f35b61010160048036038101906100fc91906115cc565b61098d565b005b60606000600460003373ffffffffffffffffffffffffffffffffffffffff1673ffffffffffffffffffffffffffffffffffffffff1681526020019081526020016000208054905067ffffffffffffffff811115610163576101626114a1565b5b6040519080825280602002602001820160405280156101915781602001602082028036833780820191505090505b50905060005b600460003373ffffffffffffffffffffffffffffffffffffffff1673ffffffffffffffffffffffffffffffffffffffff168152602001908152602001600020805490508110156102b757600460003373ffffffffffffffffffffffffffffffffffffffff1673ffffffffffffffffffffffffffffffffffffffff168152602001908152602001600020818154811061023257610231611628565b5b9060005260206000200160009054906101000a900473ffffffffffffffffffffffffffffffffffffffff168282815181106102705761026f611628565b5b602002602001019073ffffffffffffffffffffffffffffffffffffffff16908173ffffffffffffffffffffffffffffffffffffffff16815250508080600101915050610197565b508091505090565b60606000600360003373ffffffffffffffffffffffffffffffffffffffff1673ffffffffffffffffffffffffffffffffffffffff1681526020019081526020016000208054905067ffffffffffffffff81111561031f5761031e6114a1565b5b60405190808252806020026020018201604052801561034d5781602001602082028036833780820191505090505b50905060005b600360003373ffffffffffffffffffffffffffffffffffffffff1673ffffffffffffffffffffffffffffffffffffffff1681526020019081526020016000208054905081101561047357600360003373ffffffffffffffffffffffffffffffffffffffff1673ffffffffffffffffffffffffffffffffffffffff16815260200190815260200160002081815481106103ee576103ed611628565b5b9060005260206000200160009054906101000a900473ffffffffffffffffffffffffffffffffffffffff1682828151811061042c5761042b611628565b5b602002602001019073ffffffffffffffffffffffffffffffffffffffff16908173ffffffffffffffffffffffffffffffffffffffff16815250508080600101915050610353565b508091505090565b6000600560009054906101000a900473ffffffffffffffffffffffffffffffffffffffff16905090565b6060808273ffffffffffffffffffffffffffffffffffffffff163373ffffffffffffffffffffffffffffffffffffffff1603610516576040517f08c379a000000000000000000000000000000000000000000000000000000000815260040161050d906116b4565b60405180910390fd5b6000803373ffffffffffffffffffffffffffffffffffffffff1673ffffffffffffffffffffffffffffffffffffffff16815260200190815260200160002060008473ffffffffffffffffffffffffffffffffffffffff1673ffffffffffffffffffffffffffffffffffffffff1681526020019081526020016000206000808573ffffffffffffffffffffffffffffffffffffffff1673ffffffffffffffffffffffffffffffffffffffff16815260200190815260200160002060003373ffffffffffffffffffffffffffffffffffffffff1673ffffffffffffffffffffffffffffffffffffffff16815260200190815260200160002081805480602002602001604051908101604052809291908181526020016000905b828210156107c257838290600052602060002090600502016040518060a00160405290816000820160009054906101000a900473ffffffffffffffffffffffffffffffffffffffff1673ffffffffffffffffffffffffffffffffffffffff1673ffffffffffffffffffffffffffffffffffffffff1681526020016001820160009054906101000a900473ffffffffffffffffffffffffffffffffffffffff1673ffffffffffffffffffffffffffffffffffffffff1673ffffffffffffffffffffffffffffffffffffffff16815260200160028201805461070c90611703565b80601f016020809104026020016040519081016040528092919081815260200182805461073890611703565b80156107855780601f1061075a57610100808354040283529160200191610785565b820191906000526020600020905b81548152906001019060200180831161076857829003601f168201915b50505050508152602001600382015481526020016004820160009054906101000a900460ff1615151515815250508152602001906001019061062d565b50505050915080805480602002602001604051908101604052809291908181526020016000905b8282101561097e57838290600052602060002090600502016040518060a00160405290816000820160009054906101000a900473ffffffffffffffffffffffffffffffffffffffff1673ffffffffffffffffffffffffffffffffffffffff1673ffffffffffffffffffffffffffffffffffffffff1681526020016001820160009054906101000a900473ffffffffffffffffffffffffffffffffffffffff1673ffffffffffffffffffffffffffffffffffffffff1673ffffffffffffffffffffffffffffffffffffffff1681526020016002820180546108c890611703565b80601f01602080910402602001604051908101604052809291908181526020018280546108f490611703565b80156109415780601f1061091657610100808354040283529160200191610941565b820191906000526020600020905b81548152906001019060200180831161092457829003601f168201915b50505050508152602001600382015481526020016004820160009054906101000a900460ff161515151581525050815260200190600101906107e9565b50505050905091509150915091565b8173ffffffffffffffffffffffffffffffffffffffff163373ffffffffffffffffffffffffffffffffffffffff16036109fb576040517f08c379a00000000000000000000000000000000000000000000000000000000081526004016109f290611780565b60405180910390fd5b600080600090505b600360003373ffffffffffffffffffffffffffffffffffffffff1673ffffffffffffffffffffffffffffffffffffffff16815260200190815260200160002080549050811015610b11573373ffffffffffffffffffffffffffffffffffffffff16600360003373ffffffffffffffffffffffffffffffffffffffff1673ffffffffffffffffffffffffffffffffffffffff1681526020019081526020016000208281548110610ab557610ab4611628565b5b9060005260206000200160009054906101000a900473ffffffffffffffffffffffffffffffffffffffff1673ffffffffffffffffffffffffffffffffffffffff1603610b045760019150610b11565b8080600101915050610a03565b5060005b600460008573ffffffffffffffffffffffffffffffffffffffff1673ffffffffffffffffffffffffffffffffffffffff16815260200190815260200160002080549050811015610c23573373ffffffffffffffffffffffffffffffffffffffff16600460008673ffffffffffffffffffffffffffffffffffffffff1673ffffffffffffffffffffffffffffffffffffffff1681526020019081526020016000208281548110610bc757610bc6611628565b5b9060005260206000200160009054906101000a900473ffffffffffffffffffffffffffffffffffffffff1673ffffffffffffffffffffffffffffffffffffffff1603610c165760019150610c23565b8080600101915050610b15565b5080610d6a57600460008473ffffffffffffffffffffffffffffffffffffffff1673ffffffffffffffffffffffffffffffffffffffff168152602001908152602001600020339080600181540180825580915050600190039060005260206000200160009091909190916101000a81548173ffffffffffffffffffffffffffffffffffffffff021916908373ffffffffffffffffffffffffffffffffffffffff160217905550600360003373ffffffffffffffffffffffffffffffffffffffff1673ffffffffffffffffffffffffffffffffffffffff168152602001908152602001600020839080600181540180825580915050600190039060005260206000200160009091909190916101000a81548173ffffffffffffffffffffffffffffffffffffffff021916908373ffffffffffffffffffffffffffffffffffffffff1602179055505b6000803373ffffffffffffffffffffffffffffffffffffffff1673ffffffffffffffffffffffffffffffffffffffff16815260200190815260200160002060008473ffffffffffffffffffffffffffffffffffffffff1673ffffffffffffffffffffffffffffffffffffffff1681526020019081526020016000206040518060a001604052803373ffffffffffffffffffffffffffffffffffffffff1681526020018573ffffffffffffffffffffffffffffffffffffffff16815260200184815260200142815260200160001515815250908060018154018082558091505060019003906000526020600020906005020160009091909190915060008201518160000160006101000a81548173ffffffffffffffffffffffffffffffffffffffff021916908373ffffffffffffffffffffffffffffffffffffffff16021790555060208201518160010160006101000a81548173ffffffffffffffffffffffffffffffffffffffff021916908373ffffffffffffffffffffffffffffffffffffffff1602179055506040820151816002019081610f07919061194c565b506060820151816003015560808201518160040160006101000a81548160ff021916908315150217905550505060016000803373ffffffffffffffffffffffffffffffffffffffff1673ffffffffffffffffffffffffffffffffffffffff16815260200190815260200160002060008573ffffffffffffffffffffffffffffffffffffffff1673ffffffffffffffffffffffffffffffffffffffff16815260200190815260200160002080549050610fbf9190611a4d565b8373ffffffffffffffffffffffffffffffffffffffff163373ffffffffffffffffffffffffffffffffffffffff167ffa00ffce6051230b4361a25cb8c6cf798674abf770922e7c08373265c95fc0274260405161101c9190611a90565b60405180910390a4600160008473ffffffffffffffffffffffffffffffffffffffff1673ffffffffffffffffffffffffffffffffffffffff16815260200190815260200160002060003373ffffffffffffffffffffffffffffffffffffffff1673ffffffffffffffffffffffffffffffffffffffff16815260200190815260200160002060008154809291906110b190611aab565b9190505550505050565b600081519050919050565b600082825260208201905092915050565b6000819050602082019050919050565b600073ffffffffffffffffffffffffffffffffffffffff82169050919050565b6000611112826110e7565b9050919050565b61112281611107565b82525050565b60006111348383611119565b60208301905092915050565b6000602082019050919050565b6000611158826110bb565b61116281856110c6565b935061116d836110d7565b8060005b8381101561119e5781516111858882611128565b975061119083611140565b925050600181019050611171565b5085935050505092915050565b600060208201905081810360008301526111c5818461114d565b905092915050565b6111d681611107565b82525050565b60006020820190506111f160008301846111cd565b92915050565b6000604051905090565b600080fd5b600080fd5b61121481611107565b811461121f57600080fd5b50565b6000813590506112318161120b565b92915050565b60006020828403121561124d5761124c611201565b5b600061125b84828501611222565b91505092915050565b600081519050919050565b600082825260208201905092915050565b6000819050602082019050919050565b600081519050919050565b600082825260208201905092915050565b60005b838110156112ca5780820151818401526020810190506112af565b60008484015250505050565b6000601f19601f8301169050919050565b60006112f282611290565b6112fc818561129b565b935061130c8185602086016112ac565b611315816112d6565b840191505092915050565b6000819050919050565b61133381611320565b82525050565b60008115159050919050565b61134e81611339565b82525050565b600060a08301600083015161136c6000860182611119565b50602083015161137f6020860182611119565b506040830151848203604086015261139782826112e7565b91505060608301516113ac606086018261132a565b5060808301516113bf6080860182611345565b508091505092915050565b60006113d68383611354565b905092915050565b6000602082019050919050565b60006113f682611264565b611400818561126f565b93508360208202850161141285611280565b8060005b8581101561144e578484038952815161142f85826113ca565b945061143a836113de565b925060208a01995050600181019050611416565b50829750879550505050505092915050565b6000604082019050818103600083015261147a81856113eb565b9050818103602083015261148e81846113eb565b90509392505050565b600080fd5b600080fd5b7f4e487b7100000000000000000000000000000000000000000000000000000000600052604160045260246000fd5b6114d9826112d6565b810181811067ffffffffffffffff821117156114f8576114f76114a1565b5b80604052505050565b600061150b6111f7565b905061151782826114d0565b919050565b600067ffffffffffffffff821115611537576115366114a1565b5b611540826112d6565b9050602081019050919050565b82818337600083830152505050565b600061156f61156a8461151c565b611501565b90508281526020810184848401111561158b5761158a61149c565b5b61159684828561154d565b509392505050565b600082601f8301126115b3576115b2611497565b5b81356115c384826020860161155c565b91505092915050565b600080604083850312156115e3576115e2611201565b5b60006115f185828601611222565b925050602083013567ffffffffffffffff81111561161257611611611206565b5b61161e8582860161159e565b9150509250929050565b7f4e487b7100000000000000000000000000000000000000000000000000000000600052603260045260246000fd5b600082825260208201905092915050565b7f72656365697665722063616e206e6f7420626520796f757273656c6600000000600082015250565b600061169e601c83611657565b91506116a982611668565b602082019050919050565b600060208201905081810360008301526116cd81611691565b9050919050565b7f4e487b7100000000000000000000000000000000000000000000000000000000600052602260045260246000fd5b6000600282049050600182168061171b57607f821691505b60208210810361172e5761172d6116d4565b5b50919050565b7f43616e6e6f742073656e64206d65737361676520746f20796f757273656c6600600082015250565b600061176a601f83611657565b915061177582611734565b602082019050919050565b600060208201905081810360008301526117998161175d565b9050919050565b60008190508160005260206000209050919050565b60006020601f8301049050919050565b600082821b905092915050565b6000600883026118027fffffffffffffffffffffffffffffffffffffffffffffffffffffffffffffffff826117c5565b61180c86836117c5565b95508019841693508086168417925050509392505050565b6000819050919050565b600061184961184461183f84611320565b611824565b611320565b9050919050565b6000819050919050565b6118638361182e565b61187761186f82611850565b8484546117d2565b825550505050565b600090565b61188c61187f565b61189781848461185a565b505050565b5b818110156118bb576118b0600082611884565b60018101905061189d565b5050565b601f821115611900576118d1816117a0565b6118da846117b5565b810160208510156118e9578190505b6118fd6118f5856117b5565b83018261189c565b50505b505050565b600082821c905092915050565b600061192360001984600802611905565b1980831691505092915050565b600061193c8383611912565b9150826002028217905092915050565b61195582611290565b67ffffffffffffffff81111561196e5761196d6114a1565b5b6119788254611703565b6119838282856118bf565b600060209050601f8311600181146119b657600084156119a4578287015190505b6119ae8582611930565b865550611a16565b601f1984166119c4866117a0565b60005b828110156119ec578489015182556001820191506020850194506020810190506119c7565b86831015611a095784890151611a05601f891682611912565b8355505b6001600288020188555050505b505050505050565b7f4e487b7100000000000000000000000000000000000000000000000000000000600052601160045260246000fd5b6000611a5882611320565b9150611a6383611320565b9250828203905081811115611a7b57611a7a611a1e565b5b92915050565b611a8a81611320565b82525050565b6000602082019050611aa56000830184611a81565b92915050565b6000611ab682611320565b91507fffffffffffffffffffffffffffffffffffffffffffffffffffffffffffffffff8203611ae857611ae7611a1e565b5b60018201905091905056fea2646970667358221220081d5fb371272075292d7e9954ac1672f158f263b9695e726e1e4f99e0d5b32264736f6c63430008180033",
  "linkReferences": {},
  "deployedLinkReferences": {}
}