{
  "_format": "hh-sol-artifact-1",
  "contractName": "MessagingApp",
  "sourceName": "contracts/MessagingApp.sol",
  "abi": [
    {
      "inputs": [],
      "stateMutability": "nonpayable",
      "type": "constructor"
    },
    {
      "anonymous": false,
      "inputs": [
        {
          "indexed": true,
          "internalType": "address",
          "name": "sender",
          "type": "address"
        },
        {
          "indexed": true,
          "internalType": "address",
          "name": "receiver",
          "type": "address"
        },
        {
          "indexed": true,
          "internalType": "uint256",
          "name": "messageId",
          "type": "uint256"
        }
      ],
      "name": "MessageRead",
      "type": "event"
    },
    {
      "anonymous": false,
      "inputs": [
        {
          "indexed": true,
          "internalType": "address",
          "name": "sender",
          "type": "address"
        },
        {
          "indexed": true,
          "internalType": "address",
          "name": "receiver",
          "type": "address"
        },
        {
          "indexed": true,
          "internalType": "uint256",
          "name": "messageId",
          "type": "uint256"
        },
        {
          "indexed": false,
          "internalType": "uint256",
          "name": "timestamp",
          "type": "uint256"
        }
      ],
      "name": "MessageSent",
      "type": "event"
    },
    {
      "anonymous": false,
      "inputs": [
        {
          "indexed": true,
          "internalType": "address",
          "name": "receiver",
          "type": "address"
        },
        {
          "indexed": true,
          "internalType": "uint256",
          "name": "messageId",
          "type": "uint256"
        },
        {
          "indexed": false,
          "internalType": "uint256",
          "name": "timestamp",
          "type": "uint256"
        }
      ],
      "name": "NotificationSent",
      "type": "event"
    },
    {
      "inputs": [
        {
          "internalType": "bytes",
          "name": "_textCode",
          "type": "bytes"
        }
      ],
      "name": "decodeText",
      "outputs": [
        {
          "internalType": "string",
          "name": "",
          "type": "string"
        }
      ],
      "stateMutability": "pure",
      "type": "function"
    },
    {
      "inputs": [],
      "name": "getAllChatsReceiver",
      "outputs": [
        {
          "internalType": "address[]",
          "name": "",
          "type": "address[]"
        }
      ],
      "stateMutability": "view",
      "type": "function"
    },
    {
      "inputs": [],
      "name": "getAllChatsSender",
      "outputs": [
        {
          "internalType": "address[]",
          "name": "",
          "type": "address[]"
        }
      ],
      "stateMutability": "view",
      "type": "function"
    },
    {
      "inputs": [
        {
          "internalType": "address",
          "name": "_receiver",
          "type": "address"
        }
      ],
      "name": "getMessages",
      "outputs": [
        {
          "components": [
            {
              "internalType": "address",
              "name": "sender",
              "type": "address"
            },
            {
              "internalType": "address",
              "name": "receiver",
              "type": "address"
            },
            {
              "internalType": "bytes",
              "name": "contentEncripted",
              "type": "bytes"
            },
            {
              "internalType": "uint256",
              "name": "timestamp",
              "type": "uint256"
            },
            {
              "internalType": "bool",
              "name": "isRead",
              "type": "bool"
            }
          ],
          "internalType": "struct MessagingApp.Message[]",
          "name": "",
          "type": "tuple[]"
        },
        {
          "components": [
            {
              "internalType": "address",
              "name": "sender",
              "type": "address"
            },
            {
              "internalType": "address",
              "name": "receiver",
              "type": "address"
            },
            {
              "internalType": "bytes",
              "name": "contentEncripted",
              "type": "bytes"
            },
            {
              "internalType": "uint256",
              "name": "timestamp",
              "type": "uint256"
            },
            {
              "internalType": "bool",
              "name": "isRead",
              "type": "bool"
            }
          ],
          "internalType": "struct MessagingApp.Message[]",
          "name": "",
          "type": "tuple[]"
        }
      ],
      "stateMutability": "view",
      "type": "function"
    },
    {
      "inputs": [
        {
          "internalType": "address",
          "name": "_address",
          "type": "address"
        }
      ],
      "name": "getProfile",
      "outputs": [
        {
          "components": [
            {
              "internalType": "string",
              "name": "nickname",
              "type": "string"
            },
            {
              "internalType": "uint8",
              "name": "idImage",
              "type": "uint8"
            }
          ],
          "internalType": "struct MessagingApp.Profile",
          "name": "",
          "type": "tuple"
        }
      ],
      "stateMutability": "view",
      "type": "function"
    },
    {
      "inputs": [
        {
          "internalType": "address",
          "name": "_receiver",
          "type": "address"
        },
        {
          "internalType": "string",
          "name": "_text",
          "type": "string"
        }
      ],
      "name": "sendMessage",
      "outputs": [],
      "stateMutability": "nonpayable",
      "type": "function"
    },
    {
      "inputs": [
        {
          "internalType": "string",
          "name": "_nickname",
          "type": "string"
        },
        {
          "internalType": "uint8",
          "name": "_idImage",
          "type": "uint8"
        }
      ],
      "name": "setProfile",
      "outputs": [],
      "stateMutability": "nonpayable",
      "type": "function"
    }
  ],
  "bytecode": "0x608060405234801561001057600080fd5b5033600660006101000a81548173ffffffffffffffffffffffffffffffffffffffff021916908373ffffffffffffffffffffffffffffffffffffffff1602179055506122b3806100616000396000f3fe608060405234801561001057600080fd5b506004361061007d5760003560e01c80634ba1d2fb1161005b5780634ba1d2fb14610100578063b2f713221461011e578063b320296a1461014f578063de6f24bb1461016b5761007d565b8063040f7dc1146100825780630f53a470146100b257806314d76473146100e2575b600080fd5b61009c600480360381019061009791906114da565b610187565b6040516100a991906115a2565b60405180910390f35b6100cc60048036038101906100c79190611622565b6101a4565b6040516100d991906116f2565b60405180910390f35b6100ea6102ac565b6040516100f791906117d2565b60405180910390f35b610108610468565b60405161011591906117d2565b60405180910390f35b61013860048036038101906101339190611622565b610624565b6040516101469291906119b5565b60405180910390f35b61016960048036038101906101649190611ab9565b610b0c565b005b61018560048036038101906101809190611b15565b610ba1565b005b60608180602001905181019061019d9190611be1565b9050919050565b6101ac611363565b600560008373ffffffffffffffffffffffffffffffffffffffff1673ffffffffffffffffffffffffffffffffffffffff16815260200190815260200160002060405180604001604052908160008201805461020690611c59565b80601f016020809104026020016040519081016040528092919081815260200182805461023290611c59565b801561027f5780601f106102545761010080835404028352916020019161027f565b820191906000526020600020905b81548152906001019060200180831161026257829003601f168201915b505050505081526020016001820160009054906101000a900460ff1660ff1660ff16815250509050919050565b60606000600460003373ffffffffffffffffffffffffffffffffffffffff1673ffffffffffffffffffffffffffffffffffffffff1681526020019081526020016000208054905067ffffffffffffffff81111561030c5761030b6113af565b5b60405190808252806020026020018201604052801561033a5781602001602082028036833780820191505090505b50905060005b600460003373ffffffffffffffffffffffffffffffffffffffff1673ffffffffffffffffffffffffffffffffffffffff1681526020019081526020016000208054905081101561046057600460003373ffffffffffffffffffffffffffffffffffffffff1673ffffffffffffffffffffffffffffffffffffffff16815260200190815260200160002081815481106103db576103da611c8a565b5b9060005260206000200160009054906101000a900473ffffffffffffffffffffffffffffffffffffffff1682828151811061041957610418611c8a565b5b602002602001019073ffffffffffffffffffffffffffffffffffffffff16908173ffffffffffffffffffffffffffffffffffffffff16815250508080600101915050610340565b508091505090565b60606000600360003373ffffffffffffffffffffffffffffffffffffffff1673ffffffffffffffffffffffffffffffffffffffff1681526020019081526020016000208054905067ffffffffffffffff8111156104c8576104c76113af565b5b6040519080825280602002602001820160405280156104f65781602001602082028036833780820191505090505b50905060005b600360003373ffffffffffffffffffffffffffffffffffffffff1673ffffffffffffffffffffffffffffffffffffffff1681526020019081526020016000208054905081101561061c57600360003373ffffffffffffffffffffffffffffffffffffffff1673ffffffffffffffffffffffffffffffffffffffff168152602001908152602001600020818154811061059757610596611c8a565b5b9060005260206000200160009054906101000a900473ffffffffffffffffffffffffffffffffffffffff168282815181106105d5576105d4611c8a565b5b602002602001019073ffffffffffffffffffffffffffffffffffffffff16908173ffffffffffffffffffffffffffffffffffffffff168152505080806001019150506104fc565b508091505090565b6060808273ffffffffffffffffffffffffffffffffffffffff163373ffffffffffffffffffffffffffffffffffffffff1603610695576040517f08c379a000000000000000000000000000000000000000000000000000000000815260040161068c90611d05565b60405180910390fd5b6000803373ffffffffffffffffffffffffffffffffffffffff1673ffffffffffffffffffffffffffffffffffffffff16815260200190815260200160002060008473ffffffffffffffffffffffffffffffffffffffff1673ffffffffffffffffffffffffffffffffffffffff1681526020019081526020016000206000808573ffffffffffffffffffffffffffffffffffffffff1673ffffffffffffffffffffffffffffffffffffffff16815260200190815260200160002060003373ffffffffffffffffffffffffffffffffffffffff1673ffffffffffffffffffffffffffffffffffffffff16815260200190815260200160002081805480602002602001604051908101604052809291908181526020016000905b8282101561094157838290600052602060002090600502016040518060a00160405290816000820160009054906101000a900473ffffffffffffffffffffffffffffffffffffffff1673ffffffffffffffffffffffffffffffffffffffff1673ffffffffffffffffffffffffffffffffffffffff1681526020016001820160009054906101000a900473ffffffffffffffffffffffffffffffffffffffff1673ffffffffffffffffffffffffffffffffffffffff1673ffffffffffffffffffffffffffffffffffffffff16815260200160028201805461088b90611c59565b80601f01602080910402602001604051908101604052809291908181526020018280546108b790611c59565b80156109045780601f106108d957610100808354040283529160200191610904565b820191906000526020600020905b8154815290600101906020018083116108e757829003601f168201915b50505050508152602001600382015481526020016004820160009054906101000a900460ff161515151581525050815260200190600101906107ac565b50505050915080805480602002602001604051908101604052809291908181526020016000905b82821015610afd57838290600052602060002090600502016040518060a00160405290816000820160009054906101000a900473ffffffffffffffffffffffffffffffffffffffff1673ffffffffffffffffffffffffffffffffffffffff1673ffffffffffffffffffffffffffffffffffffffff1681526020016001820160009054906101000a900473ffffffffffffffffffffffffffffffffffffffff1673ffffffffffffffffffffffffffffffffffffffff1673ffffffffffffffffffffffffffffffffffffffff168152602001600282018054610a4790611c59565b80601f0160208091040260200160405190810160405280929190818152602001828054610a7390611c59565b8015610ac05780601f10610a9557610100808354040283529160200191610ac0565b820191906000526020600020905b815481529060010190602001808311610aa357829003601f168201915b50505050508152602001600382015481526020016004820160009054906101000a900460ff16151515158152505081526020019060010190610968565b50505050905091509150915091565b60405180604001604052808381526020018260ff16815250600560003373ffffffffffffffffffffffffffffffffffffffff1673ffffffffffffffffffffffffffffffffffffffff1681526020019081526020016000206000820151816000019081610b789190611ed1565b5060208201518160010160006101000a81548160ff021916908360ff1602179055509050505050565b8173ffffffffffffffffffffffffffffffffffffffff163373ffffffffffffffffffffffffffffffffffffffff1603610c0f576040517f08c379a0000000000000000000000000000000000000000000000000000000008152600401610c0690611fef565b60405180910390fd5b600073ffffffffffffffffffffffffffffffffffffffff168273ffffffffffffffffffffffffffffffffffffffff1603610c7e576040517f08c379a0000000000000000000000000000000000000000000000000000000008152600401610c759061205b565b60405180910390fd5b600081604051602001610c9191906115a2565b6040516020818303038152906040529050600080600090505b600360003373ffffffffffffffffffffffffffffffffffffffff1673ffffffffffffffffffffffffffffffffffffffff16815260200190815260200160002080549050811015610db8573373ffffffffffffffffffffffffffffffffffffffff16600360003373ffffffffffffffffffffffffffffffffffffffff1673ffffffffffffffffffffffffffffffffffffffff1681526020019081526020016000208281548110610d5c57610d5b611c8a565b5b9060005260206000200160009054906101000a900473ffffffffffffffffffffffffffffffffffffffff1673ffffffffffffffffffffffffffffffffffffffff1603610dab5760019150610db8565b8080600101915050610caa565b5060005b600460008673ffffffffffffffffffffffffffffffffffffffff1673ffffffffffffffffffffffffffffffffffffffff16815260200190815260200160002080549050811015610eca573373ffffffffffffffffffffffffffffffffffffffff16600460008773ffffffffffffffffffffffffffffffffffffffff1673ffffffffffffffffffffffffffffffffffffffff1681526020019081526020016000208281548110610e6e57610e6d611c8a565b5b9060005260206000200160009054906101000a900473ffffffffffffffffffffffffffffffffffffffff1673ffffffffffffffffffffffffffffffffffffffff1603610ebd5760019150610eca565b8080600101915050610dbc565b508061101157600460008573ffffffffffffffffffffffffffffffffffffffff1673ffffffffffffffffffffffffffffffffffffffff168152602001908152602001600020339080600181540180825580915050600190039060005260206000200160009091909190916101000a81548173ffffffffffffffffffffffffffffffffffffffff021916908373ffffffffffffffffffffffffffffffffffffffff160217905550600360003373ffffffffffffffffffffffffffffffffffffffff1673ffffffffffffffffffffffffffffffffffffffff168152602001908152602001600020849080600181540180825580915050600190039060005260206000200160009091909190916101000a81548173ffffffffffffffffffffffffffffffffffffffff021916908373ffffffffffffffffffffffffffffffffffffffff1602179055505b6000803373ffffffffffffffffffffffffffffffffffffffff1673ffffffffffffffffffffffffffffffffffffffff16815260200190815260200160002060008573ffffffffffffffffffffffffffffffffffffffff1673ffffffffffffffffffffffffffffffffffffffff1681526020019081526020016000206040518060a001604052803373ffffffffffffffffffffffffffffffffffffffff1681526020018673ffffffffffffffffffffffffffffffffffffffff16815260200184815260200142815260200160001515815250908060018154018082558091505060019003906000526020600020906005020160009091909190915060008201518160000160006101000a81548173ffffffffffffffffffffffffffffffffffffffff021916908373ffffffffffffffffffffffffffffffffffffffff16021790555060208201518160010160006101000a81548173ffffffffffffffffffffffffffffffffffffffff021916908373ffffffffffffffffffffffffffffffffffffffff16021790555060408201518160020190816111ae91906120d6565b506060820151816003015560808201518160040160006101000a81548160ff021916908315150217905550505060016000803373ffffffffffffffffffffffffffffffffffffffff1673ffffffffffffffffffffffffffffffffffffffff16815260200190815260200160002060008673ffffffffffffffffffffffffffffffffffffffff1673ffffffffffffffffffffffffffffffffffffffff1681526020019081526020016000208054905061126691906121d7565b8473ffffffffffffffffffffffffffffffffffffffff163373ffffffffffffffffffffffffffffffffffffffff167ffa00ffce6051230b4361a25cb8c6cf798674abf770922e7c08373265c95fc027426040516112c3919061221a565b60405180910390a4600160008573ffffffffffffffffffffffffffffffffffffffff1673ffffffffffffffffffffffffffffffffffffffff16815260200190815260200160002060003373ffffffffffffffffffffffffffffffffffffffff1673ffffffffffffffffffffffffffffffffffffffff168152602001908152602001600020600081548092919061135890612235565b919050555050505050565b604051806040016040528060608152602001600060ff1681525090565b6000604051905090565b600080fd5b600080fd5b600080fd5b600080fd5b6000601f19601f8301169050919050565b7f4e487b7100000000000000000000000000000000000000000000000000000000600052604160045260246000fd5b6113e78261139e565b810181811067ffffffffffffffff82111715611406576114056113af565b5b80604052505050565b6000611419611380565b905061142582826113de565b919050565b600067ffffffffffffffff821115611445576114446113af565b5b61144e8261139e565b9050602081019050919050565b82818337600083830152505050565b600061147d6114788461142a565b61140f565b90508281526020810184848401111561149957611498611399565b5b6114a484828561145b565b509392505050565b600082601f8301126114c1576114c0611394565b5b81356114d184826020860161146a565b91505092915050565b6000602082840312156114f0576114ef61138a565b5b600082013567ffffffffffffffff81111561150e5761150d61138f565b5b61151a848285016114ac565b91505092915050565b600081519050919050565b600082825260208201905092915050565b60005b8381101561155d578082015181840152602081019050611542565b60008484015250505050565b600061157482611523565b61157e818561152e565b935061158e81856020860161153f565b6115978161139e565b840191505092915050565b600060208201905081810360008301526115bc8184611569565b905092915050565b600073ffffffffffffffffffffffffffffffffffffffff82169050919050565b60006115ef826115c4565b9050919050565b6115ff816115e4565b811461160a57600080fd5b50565b60008135905061161c816115f6565b92915050565b6000602082840312156116385761163761138a565b5b60006116468482850161160d565b91505092915050565b600082825260208201905092915050565b600061166b82611523565b611675818561164f565b935061168581856020860161153f565b61168e8161139e565b840191505092915050565b600060ff82169050919050565b6116af81611699565b82525050565b600060408301600083015184820360008601526116d28282611660565b91505060208301516116e760208601826116a6565b508091505092915050565b6000602082019050818103600083015261170c81846116b5565b905092915050565b600081519050919050565b600082825260208201905092915050565b6000819050602082019050919050565b611749816115e4565b82525050565b600061175b8383611740565b60208301905092915050565b6000602082019050919050565b600061177f82611714565b611789818561171f565b935061179483611730565b8060005b838110156117c55781516117ac888261174f565b97506117b783611767565b925050600181019050611798565b5085935050505092915050565b600060208201905081810360008301526117ec8184611774565b905092915050565b600081519050919050565b600082825260208201905092915050565b6000819050602082019050919050565b600081519050919050565b600082825260208201905092915050565b600061184782611820565b611851818561182b565b935061186181856020860161153f565b61186a8161139e565b840191505092915050565b6000819050919050565b61188881611875565b82525050565b60008115159050919050565b6118a38161188e565b82525050565b600060a0830160008301516118c16000860182611740565b5060208301516118d46020860182611740565b50604083015184820360408601526118ec828261183c565b9150506060830151611901606086018261187f565b506080830151611914608086018261189a565b508091505092915050565b600061192b83836118a9565b905092915050565b6000602082019050919050565b600061194b826117f4565b61195581856117ff565b93508360208202850161196785611810565b8060005b858110156119a35784840389528151611984858261191f565b945061198f83611933565b925060208a0199505060018101905061196b565b50829750879550505050505092915050565b600060408201905081810360008301526119cf8185611940565b905081810360208301526119e38184611940565b90509392505050565b600067ffffffffffffffff821115611a0757611a066113af565b5b611a108261139e565b9050602081019050919050565b6000611a30611a2b846119ec565b61140f565b905082815260208101848484011115611a4c57611a4b611399565b5b611a5784828561145b565b509392505050565b600082601f830112611a7457611a73611394565b5b8135611a84848260208601611a1d565b91505092915050565b611a9681611699565b8114611aa157600080fd5b50565b600081359050611ab381611a8d565b92915050565b60008060408385031215611ad057611acf61138a565b5b600083013567ffffffffffffffff811115611aee57611aed61138f565b5b611afa85828601611a5f565b9250506020611b0b85828601611aa4565b9150509250929050565b60008060408385031215611b2c57611b2b61138a565b5b6000611b3a8582860161160d565b925050602083013567ffffffffffffffff811115611b5b57611b5a61138f565b5b611b6785828601611a5f565b9150509250929050565b6000611b84611b7f846119ec565b61140f565b905082815260208101848484011115611ba057611b9f611399565b5b611bab84828561153f565b509392505050565b600082601f830112611bc857611bc7611394565b5b8151611bd8848260208601611b71565b91505092915050565b600060208284031215611bf757611bf661138a565b5b600082015167ffffffffffffffff811115611c1557611c1461138f565b5b611c2184828501611bb3565b91505092915050565b7f4e487b7100000000000000000000000000000000000000000000000000000000600052602260045260246000fd5b60006002820490506001821680611c7157607f821691505b602082108103611c8457611c83611c2a565b5b50919050565b7f4e487b7100000000000000000000000000000000000000000000000000000000600052603260045260246000fd5b7f72656365697665722063616e206e6f7420626520796f757273656c6600000000600082015250565b6000611cef601c8361152e565b9150611cfa82611cb9565b602082019050919050565b60006020820190508181036000830152611d1e81611ce2565b9050919050565b60008190508160005260206000209050919050565b60006020601f8301049050919050565b600082821b905092915050565b600060088302611d877fffffffffffffffffffffffffffffffffffffffffffffffffffffffffffffffff82611d4a565b611d918683611d4a565b95508019841693508086168417925050509392505050565b6000819050919050565b6000611dce611dc9611dc484611875565b611da9565b611875565b9050919050565b6000819050919050565b611de883611db3565b611dfc611df482611dd5565b848454611d57565b825550505050565b600090565b611e11611e04565b611e1c818484611ddf565b505050565b5b81811015611e4057611e35600082611e09565b600181019050611e22565b5050565b601f821115611e8557611e5681611d25565b611e5f84611d3a565b81016020851015611e6e578190505b611e82611e7a85611d3a565b830182611e21565b50505b505050565b600082821c905092915050565b6000611ea860001984600802611e8a565b1980831691505092915050565b6000611ec18383611e97565b9150826002028217905092915050565b611eda82611523565b67ffffffffffffffff811115611ef357611ef26113af565b5b611efd8254611c59565b611f08828285611e44565b600060209050601f831160018114611f3b5760008415611f29578287015190505b611f338582611eb5565b865550611f9b565b601f198416611f4986611d25565b60005b82811015611f7157848901518255600182019150602085019450602081019050611f4c565b86831015611f8e5784890151611f8a601f891682611e97565b8355505b6001600288020188555050505b505050505050565b7f43616e6e6f742073656e64206d65737361676520746f20796f757273656c6600600082015250565b6000611fd9601f8361152e565b9150611fe482611fa3565b602082019050919050565b6000602082019050818103600083015261200881611fcc565b9050919050565b7f4e6f2074726f6c6c210000000000000000000000000000000000000000000000600082015250565b600061204560098361152e565b91506120508261200f565b602082019050919050565b6000602082019050818103600083015261207481612038565b9050919050565b60008190508160005260206000209050919050565b601f8211156120d1576120a28161207b565b6120ab84611d3a565b810160208510156120ba578190505b6120ce6120c685611d3a565b830182611e21565b50505b505050565b6120df82611820565b67ffffffffffffffff8111156120f8576120f76113af565b5b6121028254611c59565b61210d828285612090565b600060209050601f831160018114612140576000841561212e578287015190505b6121388582611eb5565b8655506121a0565b601f19841661214e8661207b565b60005b8281101561217657848901518255600182019150602085019450602081019050612151565b86831015612193578489015161218f601f891682611e97565b8355505b6001600288020188555050505b505050505050565b7f4e487b7100000000000000000000000000000000000000000000000000000000600052601160045260246000fd5b60006121e282611875565b91506121ed83611875565b9250828203905081811115612205576122046121a8565b5b92915050565b61221481611875565b82525050565b600060208201905061222f600083018461220b565b92915050565b600061224082611875565b91507fffffffffffffffffffffffffffffffffffffffffffffffffffffffffffffffff8203612272576122716121a8565b5b60018201905091905056fea26469706673582212207e24607362a8350eebae3aa64150411bb408064d3881cbe9f9ed8e117078f66164736f6c63430008180033",
  "linkReferences": {},
  "deployedLinkReferences": {}
}