{
  "_format": "hh-sol-artifact-1",
  "contractName": "MessagingApp",
  "sourceName": "contracts/MessagingApp.sol",
  "abi": [
    {
      "inputs": [],
      "stateMutability": "nonpayable",
      "type": "constructor"
    },
    {
      "anonymous": false,
      "inputs": [
        {
          "indexed": true,
          "internalType": "address",
          "name": "sender",
          "type": "address"
        },
        {
          "indexed": true,
          "internalType": "address",
          "name": "receiver",
          "type": "address"
        },
        {
          "indexed": true,
          "internalType": "uint256",
          "name": "messageId",
          "type": "uint256"
        }
      ],
      "name": "MessageRead",
      "type": "event"
    },
    {
      "anonymous": false,
      "inputs": [
        {
          "indexed": true,
          "internalType": "address",
          "name": "sender",
          "type": "address"
        },
        {
          "indexed": true,
          "internalType": "address",
          "name": "receiver",
          "type": "address"
        },
        {
          "indexed": true,
          "internalType": "uint256",
          "name": "messageId",
          "type": "uint256"
        },
        {
          "indexed": false,
          "internalType": "uint256",
          "name": "timestamp",
          "type": "uint256"
        }
      ],
      "name": "MessageSent",
      "type": "event"
    },
    {
      "anonymous": false,
      "inputs": [
        {
          "indexed": true,
          "internalType": "address",
          "name": "receiver",
          "type": "address"
        },
        {
          "indexed": true,
          "internalType": "uint256",
          "name": "messageId",
          "type": "uint256"
        },
        {
          "indexed": false,
          "internalType": "uint256",
          "name": "timestamp",
          "type": "uint256"
        }
      ],
      "name": "NotificationSent",
      "type": "event"
    },
    {
      "inputs": [],
      "name": "addressNow",
      "outputs": [
        {
          "internalType": "address",
          "name": "",
          "type": "address"
        }
      ],
      "stateMutability": "view",
      "type": "function"
    },
    {
      "inputs": [],
      "name": "getAllChatsReceiver",
      "outputs": [
        {
          "internalType": "address[]",
          "name": "",
          "type": "address[]"
        }
      ],
      "stateMutability": "view",
      "type": "function"
    },
    {
      "inputs": [],
      "name": "getAllChatsSender",
      "outputs": [
        {
          "internalType": "address[]",
          "name": "",
          "type": "address[]"
        }
      ],
      "stateMutability": "view",
      "type": "function"
    },
    {
      "inputs": [
        {
          "internalType": "address",
          "name": "_receiver",
          "type": "address"
        }
      ],
      "name": "getMessages",
      "outputs": [
        {
          "components": [
            {
              "internalType": "address",
              "name": "sender",
              "type": "address"
            },
            {
              "internalType": "address",
              "name": "receiver",
              "type": "address"
            },
            {
              "internalType": "bytes32",
              "name": "encryptedContent",
              "type": "bytes32"
            },
            {
              "internalType": "uint256",
              "name": "timestamp",
              "type": "uint256"
            },
            {
              "internalType": "bool",
              "name": "isRead",
              "type": "bool"
            }
          ],
          "internalType": "struct MessagingApp.Message[]",
          "name": "",
          "type": "tuple[]"
        }
      ],
      "stateMutability": "view",
      "type": "function"
    },
    {
      "inputs": [],
      "name": "getOwner",
      "outputs": [
        {
          "internalType": "address",
          "name": "",
          "type": "address"
        }
      ],
      "stateMutability": "view",
      "type": "function"
    },
    {
      "inputs": [
        {
          "internalType": "address",
          "name": "_receiver",
          "type": "address"
        },
        {
          "internalType": "string",
          "name": "_text",
          "type": "string"
        }
      ],
      "name": "sendMessage",
      "outputs": [],
      "stateMutability": "nonpayable",
      "type": "function"
    }
  ],
  "bytecode": "0x608060405234801561001057600080fd5b5033600560006101000a81548173ffffffffffffffffffffffffffffffffffffffff021916908373ffffffffffffffffffffffffffffffffffffffff1602179055506114e8806100616000396000f3fe608060405234801561001057600080fd5b50600436106100625760003560e01c806314d76473146100675780634ba1d2fb14610085578063893d20e8146100a3578063b2f71322146100c1578063de6f24bb146100f1578063f8b54f141461010d575b600080fd5b61006f61012b565b60405161007c9190610ec8565b60405180910390f35b61008d6102e7565b60405161009a9190610ec8565b60405180910390f35b6100ab6104a3565b6040516100b89190610ef9565b60405180910390f35b6100db60048036038101906100d69190610f54565b6104cd565b6040516100e891906110e5565b60405180910390f35b61010b6004803603810190610106919061124d565b610682565b005b610115610dd0565b6040516101229190610ef9565b60405180910390f35b60606000600460003373ffffffffffffffffffffffffffffffffffffffff1673ffffffffffffffffffffffffffffffffffffffff1681526020019081526020016000208054905067ffffffffffffffff81111561018b5761018a611122565b5b6040519080825280602002602001820160405280156101b95781602001602082028036833780820191505090505b50905060005b600460003373ffffffffffffffffffffffffffffffffffffffff1673ffffffffffffffffffffffffffffffffffffffff168152602001908152602001600020805490508110156102df57600460003373ffffffffffffffffffffffffffffffffffffffff1673ffffffffffffffffffffffffffffffffffffffff168152602001908152602001600020818154811061025a576102596112a9565b5b9060005260206000200160009054906101000a900473ffffffffffffffffffffffffffffffffffffffff16828281518110610298576102976112a9565b5b602002602001019073ffffffffffffffffffffffffffffffffffffffff16908173ffffffffffffffffffffffffffffffffffffffff168152505080806001019150506101bf565b508091505090565b60606000600360003373ffffffffffffffffffffffffffffffffffffffff1673ffffffffffffffffffffffffffffffffffffffff1681526020019081526020016000208054905067ffffffffffffffff81111561034757610346611122565b5b6040519080825280602002602001820160405280156103755781602001602082028036833780820191505090505b50905060005b600360003373ffffffffffffffffffffffffffffffffffffffff1673ffffffffffffffffffffffffffffffffffffffff1681526020019081526020016000208054905081101561049b57600360003373ffffffffffffffffffffffffffffffffffffffff1673ffffffffffffffffffffffffffffffffffffffff1681526020019081526020016000208181548110610416576104156112a9565b5b9060005260206000200160009054906101000a900473ffffffffffffffffffffffffffffffffffffffff16828281518110610454576104536112a9565b5b602002602001019073ffffffffffffffffffffffffffffffffffffffff16908173ffffffffffffffffffffffffffffffffffffffff1681525050808060010191505061037b565b508091505090565b6000600560009054906101000a900473ffffffffffffffffffffffffffffffffffffffff16905090565b60606000803373ffffffffffffffffffffffffffffffffffffffff1673ffffffffffffffffffffffffffffffffffffffff16815260200190815260200160002060008373ffffffffffffffffffffffffffffffffffffffff1673ffffffffffffffffffffffffffffffffffffffff168152602001908152602001600020805480602002602001604051908101604052809291908181526020016000905b8282101561067757838290600052602060002090600502016040518060a00160405290816000820160009054906101000a900473ffffffffffffffffffffffffffffffffffffffff1673ffffffffffffffffffffffffffffffffffffffff1673ffffffffffffffffffffffffffffffffffffffff1681526020016001820160009054906101000a900473ffffffffffffffffffffffffffffffffffffffff1673ffffffffffffffffffffffffffffffffffffffff1673ffffffffffffffffffffffffffffffffffffffff16815260200160028201548152602001600382015481526020016004820160009054906101000a900460ff1615151515815250508152602001906001019061056a565b505050509050919050565b8173ffffffffffffffffffffffffffffffffffffffff163373ffffffffffffffffffffffffffffffffffffffff16036106f0576040517f08c379a00000000000000000000000000000000000000000000000000000000081526004016106e790611335565b60405180910390fd5b60008160405160200161070391906113c6565b604051602081830303815290604052805190602001209050600080600090505b600360003373ffffffffffffffffffffffffffffffffffffffff1673ffffffffffffffffffffffffffffffffffffffff16815260200190815260200160002080549050811015610831573373ffffffffffffffffffffffffffffffffffffffff16600360003373ffffffffffffffffffffffffffffffffffffffff1673ffffffffffffffffffffffffffffffffffffffff16815260200190815260200160002082815481106107d5576107d46112a9565b5b9060005260206000200160009054906101000a900473ffffffffffffffffffffffffffffffffffffffff1673ffffffffffffffffffffffffffffffffffffffff16036108245760019150610831565b8080600101915050610723565b5060005b600460008673ffffffffffffffffffffffffffffffffffffffff1673ffffffffffffffffffffffffffffffffffffffff16815260200190815260200160002080549050811015610943573373ffffffffffffffffffffffffffffffffffffffff16600460008773ffffffffffffffffffffffffffffffffffffffff1673ffffffffffffffffffffffffffffffffffffffff16815260200190815260200160002082815481106108e7576108e66112a9565b5b9060005260206000200160009054906101000a900473ffffffffffffffffffffffffffffffffffffffff1673ffffffffffffffffffffffffffffffffffffffff16036109365760019150610943565b8080600101915050610835565b5080610a8a57600460008573ffffffffffffffffffffffffffffffffffffffff1673ffffffffffffffffffffffffffffffffffffffff168152602001908152602001600020339080600181540180825580915050600190039060005260206000200160009091909190916101000a81548173ffffffffffffffffffffffffffffffffffffffff021916908373ffffffffffffffffffffffffffffffffffffffff160217905550600360003373ffffffffffffffffffffffffffffffffffffffff1673ffffffffffffffffffffffffffffffffffffffff168152602001908152602001600020849080600181540180825580915050600190039060005260206000200160009091909190916101000a81548173ffffffffffffffffffffffffffffffffffffffff021916908373ffffffffffffffffffffffffffffffffffffffff1602179055505b6000803373ffffffffffffffffffffffffffffffffffffffff1673ffffffffffffffffffffffffffffffffffffffff16815260200190815260200160002060008573ffffffffffffffffffffffffffffffffffffffff1673ffffffffffffffffffffffffffffffffffffffff1681526020019081526020016000206040518060a001604052803373ffffffffffffffffffffffffffffffffffffffff1681526020018673ffffffffffffffffffffffffffffffffffffffff16815260200184815260200142815260200160001515815250908060018154018082558091505060019003906000526020600020906005020160009091909190915060008201518160000160006101000a81548173ffffffffffffffffffffffffffffffffffffffff021916908373ffffffffffffffffffffffffffffffffffffffff16021790555060208201518160010160006101000a81548173ffffffffffffffffffffffffffffffffffffffff021916908373ffffffffffffffffffffffffffffffffffffffff160217905550604082015181600201556060820151816003015560808201518160040160006101000a81548160ff021916908315150217905550505060016000803373ffffffffffffffffffffffffffffffffffffffff1673ffffffffffffffffffffffffffffffffffffffff16815260200190815260200160002060008673ffffffffffffffffffffffffffffffffffffffff1673ffffffffffffffffffffffffffffffffffffffff16815260200190815260200160002080549050610cd3919061140c565b8473ffffffffffffffffffffffffffffffffffffffff163373ffffffffffffffffffffffffffffffffffffffff167ffa00ffce6051230b4361a25cb8c6cf798674abf770922e7c08373265c95fc02742604051610d30919061144f565b60405180910390a4600160008573ffffffffffffffffffffffffffffffffffffffff1673ffffffffffffffffffffffffffffffffffffffff16815260200190815260200160002060003373ffffffffffffffffffffffffffffffffffffffff1673ffffffffffffffffffffffffffffffffffffffff1681526020019081526020016000206000815480929190610dc59061146a565b919050555050505050565b600033905090565b600081519050919050565b600082825260208201905092915050565b6000819050602082019050919050565b600073ffffffffffffffffffffffffffffffffffffffff82169050919050565b6000610e2f82610e04565b9050919050565b610e3f81610e24565b82525050565b6000610e518383610e36565b60208301905092915050565b6000602082019050919050565b6000610e7582610dd8565b610e7f8185610de3565b9350610e8a83610df4565b8060005b83811015610ebb578151610ea28882610e45565b9750610ead83610e5d565b925050600181019050610e8e565b5085935050505092915050565b60006020820190508181036000830152610ee28184610e6a565b905092915050565b610ef381610e24565b82525050565b6000602082019050610f0e6000830184610eea565b92915050565b6000604051905090565b600080fd5b600080fd5b610f3181610e24565b8114610f3c57600080fd5b50565b600081359050610f4e81610f28565b92915050565b600060208284031215610f6a57610f69610f1e565b5b6000610f7884828501610f3f565b91505092915050565b600081519050919050565b600082825260208201905092915050565b6000819050602082019050919050565b6000819050919050565b610fc081610fad565b82525050565b6000819050919050565b610fd981610fc6565b82525050565b60008115159050919050565b610ff481610fdf565b82525050565b60a0820160008201516110106000850182610e36565b5060208201516110236020850182610e36565b5060408201516110366040850182610fb7565b5060608201516110496060850182610fd0565b50608082015161105c6080850182610feb565b50505050565b600061106e8383610ffa565b60a08301905092915050565b6000602082019050919050565b600061109282610f81565b61109c8185610f8c565b93506110a783610f9d565b8060005b838110156110d85781516110bf8882611062565b97506110ca8361107a565b9250506001810190506110ab565b5085935050505092915050565b600060208201905081810360008301526110ff8184611087565b905092915050565b600080fd5b600080fd5b6000601f19601f8301169050919050565b7f4e487b7100000000000000000000000000000000000000000000000000000000600052604160045260246000fd5b61115a82611111565b810181811067ffffffffffffffff8211171561117957611178611122565b5b80604052505050565b600061118c610f14565b90506111988282611151565b919050565b600067ffffffffffffffff8211156111b8576111b7611122565b5b6111c182611111565b9050602081019050919050565b82818337600083830152505050565b60006111f06111eb8461119d565b611182565b90508281526020810184848401111561120c5761120b61110c565b5b6112178482856111ce565b509392505050565b600082601f83011261123457611233611107565b5b81356112448482602086016111dd565b91505092915050565b6000806040838503121561126457611263610f1e565b5b600061127285828601610f3f565b925050602083013567ffffffffffffffff81111561129357611292610f23565b5b61129f8582860161121f565b9150509250929050565b7f4e487b7100000000000000000000000000000000000000000000000000000000600052603260045260246000fd5b600082825260208201905092915050565b7f43616e6e6f742073656e64206d65737361676520746f20796f757273656c6600600082015250565b600061131f601f836112d8565b915061132a826112e9565b602082019050919050565b6000602082019050818103600083015261134e81611312565b9050919050565b600081519050919050565b600081905092915050565b60005b8381101561138957808201518184015260208101905061136e565b60008484015250505050565b60006113a082611355565b6113aa8185611360565b93506113ba81856020860161136b565b80840191505092915050565b60006113d28284611395565b915081905092915050565b7f4e487b7100000000000000000000000000000000000000000000000000000000600052601160045260246000fd5b600061141782610fc6565b915061142283610fc6565b925082820390508181111561143a576114396113dd565b5b92915050565b61144981610fc6565b82525050565b60006020820190506114646000830184611440565b92915050565b600061147582610fc6565b91507fffffffffffffffffffffffffffffffffffffffffffffffffffffffffffffffff82036114a7576114a66113dd565b5b60018201905091905056fea26469706673582212208614c37de1ccf011f48b05344fd8b65889d95d3c3f863da5f483ea0e228d82ad64736f6c63430008180033",
  "linkReferences": {},
  "deployedLinkReferences": {}
}