{
  "_format": "hh-sol-artifact-1",
  "contractName": "MessagingApp",
  "sourceName": "contracts/MessagingApp.sol",
  "abi": [
    {
      "inputs": [],
      "stateMutability": "nonpayable",
      "type": "constructor"
    },
    {
      "anonymous": false,
      "inputs": [
        {
          "indexed": true,
          "internalType": "address",
          "name": "sender",
          "type": "address"
        },
        {
          "indexed": true,
          "internalType": "address",
          "name": "receiver",
          "type": "address"
        },
        {
          "indexed": true,
          "internalType": "uint256",
          "name": "messageId",
          "type": "uint256"
        }
      ],
      "name": "MessageRead",
      "type": "event"
    },
    {
      "anonymous": false,
      "inputs": [
        {
          "indexed": true,
          "internalType": "address",
          "name": "sender",
          "type": "address"
        },
        {
          "indexed": true,
          "internalType": "address",
          "name": "receiver",
          "type": "address"
        },
        {
          "indexed": true,
          "internalType": "uint256",
          "name": "messageId",
          "type": "uint256"
        },
        {
          "indexed": false,
          "internalType": "uint256",
          "name": "timestamp",
          "type": "uint256"
        }
      ],
      "name": "MessageSent",
      "type": "event"
    },
    {
      "anonymous": false,
      "inputs": [
        {
          "indexed": true,
          "internalType": "address",
          "name": "receiver",
          "type": "address"
        },
        {
          "indexed": true,
          "internalType": "uint256",
          "name": "messageId",
          "type": "uint256"
        },
        {
          "indexed": false,
          "internalType": "uint256",
          "name": "timestamp",
          "type": "uint256"
        }
      ],
      "name": "NotificationSent",
      "type": "event"
    },
    {
      "inputs": [],
      "name": "getAllChatsReceiver",
      "outputs": [
        {
          "internalType": "address[]",
          "name": "",
          "type": "address[]"
        }
      ],
      "stateMutability": "view",
      "type": "function"
    },
    {
      "inputs": [],
      "name": "getAllChatsSender",
      "outputs": [
        {
          "internalType": "address[]",
          "name": "",
          "type": "address[]"
        }
      ],
      "stateMutability": "view",
      "type": "function"
    },
    {
      "inputs": [
        {
          "internalType": "address",
          "name": "_receiver",
          "type": "address"
        }
      ],
      "name": "getMessages",
      "outputs": [
        {
          "components": [
            {
              "internalType": "address",
              "name": "sender",
              "type": "address"
            },
            {
              "internalType": "address",
              "name": "receiver",
              "type": "address"
            },
            {
              "internalType": "string",
              "name": "content",
              "type": "string"
            },
            {
              "internalType": "uint256",
              "name": "timestamp",
              "type": "uint256"
            },
            {
              "internalType": "bool",
              "name": "isRead",
              "type": "bool"
            }
          ],
          "internalType": "struct MessagingApp.Message[]",
          "name": "",
          "type": "tuple[]"
        },
        {
          "components": [
            {
              "internalType": "address",
              "name": "sender",
              "type": "address"
            },
            {
              "internalType": "address",
              "name": "receiver",
              "type": "address"
            },
            {
              "internalType": "string",
              "name": "content",
              "type": "string"
            },
            {
              "internalType": "uint256",
              "name": "timestamp",
              "type": "uint256"
            },
            {
              "internalType": "bool",
              "name": "isRead",
              "type": "bool"
            }
          ],
          "internalType": "struct MessagingApp.Message[]",
          "name": "",
          "type": "tuple[]"
        }
      ],
      "stateMutability": "view",
      "type": "function"
    },
    {
      "inputs": [],
      "name": "getOwner",
      "outputs": [
        {
          "internalType": "address",
          "name": "",
          "type": "address"
        }
      ],
      "stateMutability": "view",
      "type": "function"
    },
    {
      "inputs": [
        {
          "internalType": "address",
          "name": "_receiver",
          "type": "address"
        },
        {
          "internalType": "string",
          "name": "_text",
          "type": "string"
        }
      ],
      "name": "sendMessage",
      "outputs": [],
      "stateMutability": "nonpayable",
      "type": "function"
    }
  ],
  "bytecode": "0x608060405234801561001057600080fd5b5033600560006101000a81548173ffffffffffffffffffffffffffffffffffffffff021916908373ffffffffffffffffffffffffffffffffffffffff160217905550611c04806100616000396000f3fe608060405234801561001057600080fd5b50600436106100575760003560e01c806314d764731461005c5780634ba1d2fb1461007a578063893d20e814610098578063b2f71322146100b6578063de6f24bb146100e7575b600080fd5b610064610103565b604051610071919061121a565b60405180910390f35b6100826102bf565b60405161008f919061121a565b60405180910390f35b6100a061047b565b6040516100ad919061124b565b60405180910390f35b6100d060048036038101906100cb91906112a6565b6104a5565b6040516100de9291906114cf565b60405180910390f35b61010160048036038101906100fc919061163b565b61098d565b005b60606000600460003373ffffffffffffffffffffffffffffffffffffffff1673ffffffffffffffffffffffffffffffffffffffff1681526020019081526020016000208054905067ffffffffffffffff81111561016357610162611510565b5b6040519080825280602002602001820160405280156101915781602001602082028036833780820191505090505b50905060005b600460003373ffffffffffffffffffffffffffffffffffffffff1673ffffffffffffffffffffffffffffffffffffffff168152602001908152602001600020805490508110156102b757600460003373ffffffffffffffffffffffffffffffffffffffff1673ffffffffffffffffffffffffffffffffffffffff168152602001908152602001600020818154811061023257610231611697565b5b9060005260206000200160009054906101000a900473ffffffffffffffffffffffffffffffffffffffff168282815181106102705761026f611697565b5b602002602001019073ffffffffffffffffffffffffffffffffffffffff16908173ffffffffffffffffffffffffffffffffffffffff16815250508080600101915050610197565b508091505090565b60606000600360003373ffffffffffffffffffffffffffffffffffffffff1673ffffffffffffffffffffffffffffffffffffffff1681526020019081526020016000208054905067ffffffffffffffff81111561031f5761031e611510565b5b60405190808252806020026020018201604052801561034d5781602001602082028036833780820191505090505b50905060005b600360003373ffffffffffffffffffffffffffffffffffffffff1673ffffffffffffffffffffffffffffffffffffffff1681526020019081526020016000208054905081101561047357600360003373ffffffffffffffffffffffffffffffffffffffff1673ffffffffffffffffffffffffffffffffffffffff16815260200190815260200160002081815481106103ee576103ed611697565b5b9060005260206000200160009054906101000a900473ffffffffffffffffffffffffffffffffffffffff1682828151811061042c5761042b611697565b5b602002602001019073ffffffffffffffffffffffffffffffffffffffff16908173ffffffffffffffffffffffffffffffffffffffff16815250508080600101915050610353565b508091505090565b6000600560009054906101000a900473ffffffffffffffffffffffffffffffffffffffff16905090565b6060808273ffffffffffffffffffffffffffffffffffffffff163373ffffffffffffffffffffffffffffffffffffffff1603610516576040517f08c379a000000000000000000000000000000000000000000000000000000000815260040161050d90611723565b60405180910390fd5b6000803373ffffffffffffffffffffffffffffffffffffffff1673ffffffffffffffffffffffffffffffffffffffff16815260200190815260200160002060008473ffffffffffffffffffffffffffffffffffffffff1673ffffffffffffffffffffffffffffffffffffffff1681526020019081526020016000206000808573ffffffffffffffffffffffffffffffffffffffff1673ffffffffffffffffffffffffffffffffffffffff16815260200190815260200160002060003373ffffffffffffffffffffffffffffffffffffffff1673ffffffffffffffffffffffffffffffffffffffff16815260200190815260200160002081805480602002602001604051908101604052809291908181526020016000905b828210156107c257838290600052602060002090600502016040518060a00160405290816000820160009054906101000a900473ffffffffffffffffffffffffffffffffffffffff1673ffffffffffffffffffffffffffffffffffffffff1673ffffffffffffffffffffffffffffffffffffffff1681526020016001820160009054906101000a900473ffffffffffffffffffffffffffffffffffffffff1673ffffffffffffffffffffffffffffffffffffffff1673ffffffffffffffffffffffffffffffffffffffff16815260200160028201805461070c90611772565b80601f016020809104026020016040519081016040528092919081815260200182805461073890611772565b80156107855780601f1061075a57610100808354040283529160200191610785565b820191906000526020600020905b81548152906001019060200180831161076857829003601f168201915b50505050508152602001600382015481526020016004820160009054906101000a900460ff1615151515815250508152602001906001019061062d565b50505050915080805480602002602001604051908101604052809291908181526020016000905b8282101561097e57838290600052602060002090600502016040518060a00160405290816000820160009054906101000a900473ffffffffffffffffffffffffffffffffffffffff1673ffffffffffffffffffffffffffffffffffffffff1673ffffffffffffffffffffffffffffffffffffffff1681526020016001820160009054906101000a900473ffffffffffffffffffffffffffffffffffffffff1673ffffffffffffffffffffffffffffffffffffffff1673ffffffffffffffffffffffffffffffffffffffff1681526020016002820180546108c890611772565b80601f01602080910402602001604051908101604052809291908181526020018280546108f490611772565b80156109415780601f1061091657610100808354040283529160200191610941565b820191906000526020600020905b81548152906001019060200180831161092457829003601f168201915b50505050508152602001600382015481526020016004820160009054906101000a900460ff161515151581525050815260200190600101906107e9565b50505050905091509150915091565b8173ffffffffffffffffffffffffffffffffffffffff163373ffffffffffffffffffffffffffffffffffffffff16036109fb576040517f08c379a00000000000000000000000000000000000000000000000000000000081526004016109f2906117ef565b60405180910390fd5b600073ffffffffffffffffffffffffffffffffffffffff168273ffffffffffffffffffffffffffffffffffffffff1603610a6a576040517f08c379a0000000000000000000000000000000000000000000000000000000008152600401610a619061185b565b60405180910390fd5b600080600090505b600360003373ffffffffffffffffffffffffffffffffffffffff1673ffffffffffffffffffffffffffffffffffffffff16815260200190815260200160002080549050811015610b80573373ffffffffffffffffffffffffffffffffffffffff16600360003373ffffffffffffffffffffffffffffffffffffffff1673ffffffffffffffffffffffffffffffffffffffff1681526020019081526020016000208281548110610b2457610b23611697565b5b9060005260206000200160009054906101000a900473ffffffffffffffffffffffffffffffffffffffff1673ffffffffffffffffffffffffffffffffffffffff1603610b735760019150610b80565b8080600101915050610a72565b5060005b600460008573ffffffffffffffffffffffffffffffffffffffff1673ffffffffffffffffffffffffffffffffffffffff16815260200190815260200160002080549050811015610c92573373ffffffffffffffffffffffffffffffffffffffff16600460008673ffffffffffffffffffffffffffffffffffffffff1673ffffffffffffffffffffffffffffffffffffffff1681526020019081526020016000208281548110610c3657610c35611697565b5b9060005260206000200160009054906101000a900473ffffffffffffffffffffffffffffffffffffffff1673ffffffffffffffffffffffffffffffffffffffff1603610c855760019150610c92565b8080600101915050610b84565b5080610dd957600460008473ffffffffffffffffffffffffffffffffffffffff1673ffffffffffffffffffffffffffffffffffffffff168152602001908152602001600020339080600181540180825580915050600190039060005260206000200160009091909190916101000a81548173ffffffffffffffffffffffffffffffffffffffff021916908373ffffffffffffffffffffffffffffffffffffffff160217905550600360003373ffffffffffffffffffffffffffffffffffffffff1673ffffffffffffffffffffffffffffffffffffffff168152602001908152602001600020839080600181540180825580915050600190039060005260206000200160009091909190916101000a81548173ffffffffffffffffffffffffffffffffffffffff021916908373ffffffffffffffffffffffffffffffffffffffff1602179055505b6000803373ffffffffffffffffffffffffffffffffffffffff1673ffffffffffffffffffffffffffffffffffffffff16815260200190815260200160002060008473ffffffffffffffffffffffffffffffffffffffff1673ffffffffffffffffffffffffffffffffffffffff1681526020019081526020016000206040518060a001604052803373ffffffffffffffffffffffffffffffffffffffff1681526020018573ffffffffffffffffffffffffffffffffffffffff16815260200184815260200142815260200160001515815250908060018154018082558091505060019003906000526020600020906005020160009091909190915060008201518160000160006101000a81548173ffffffffffffffffffffffffffffffffffffffff021916908373ffffffffffffffffffffffffffffffffffffffff16021790555060208201518160010160006101000a81548173ffffffffffffffffffffffffffffffffffffffff021916908373ffffffffffffffffffffffffffffffffffffffff1602179055506040820151816002019081610f769190611a27565b506060820151816003015560808201518160040160006101000a81548160ff021916908315150217905550505060016000803373ffffffffffffffffffffffffffffffffffffffff1673ffffffffffffffffffffffffffffffffffffffff16815260200190815260200160002060008573ffffffffffffffffffffffffffffffffffffffff1673ffffffffffffffffffffffffffffffffffffffff1681526020019081526020016000208054905061102e9190611b28565b8373ffffffffffffffffffffffffffffffffffffffff163373ffffffffffffffffffffffffffffffffffffffff167ffa00ffce6051230b4361a25cb8c6cf798674abf770922e7c08373265c95fc0274260405161108b9190611b6b565b60405180910390a4600160008473ffffffffffffffffffffffffffffffffffffffff1673ffffffffffffffffffffffffffffffffffffffff16815260200190815260200160002060003373ffffffffffffffffffffffffffffffffffffffff1673ffffffffffffffffffffffffffffffffffffffff168152602001908152602001600020600081548092919061112090611b86565b9190505550505050565b600081519050919050565b600082825260208201905092915050565b6000819050602082019050919050565b600073ffffffffffffffffffffffffffffffffffffffff82169050919050565b600061118182611156565b9050919050565b61119181611176565b82525050565b60006111a38383611188565b60208301905092915050565b6000602082019050919050565b60006111c78261112a565b6111d18185611135565b93506111dc83611146565b8060005b8381101561120d5781516111f48882611197565b97506111ff836111af565b9250506001810190506111e0565b5085935050505092915050565b6000602082019050818103600083015261123481846111bc565b905092915050565b61124581611176565b82525050565b6000602082019050611260600083018461123c565b92915050565b6000604051905090565b600080fd5b600080fd5b61128381611176565b811461128e57600080fd5b50565b6000813590506112a08161127a565b92915050565b6000602082840312156112bc576112bb611270565b5b60006112ca84828501611291565b91505092915050565b600081519050919050565b600082825260208201905092915050565b6000819050602082019050919050565b600081519050919050565b600082825260208201905092915050565b60005b8381101561133957808201518184015260208101905061131e565b60008484015250505050565b6000601f19601f8301169050919050565b6000611361826112ff565b61136b818561130a565b935061137b81856020860161131b565b61138481611345565b840191505092915050565b6000819050919050565b6113a28161138f565b82525050565b60008115159050919050565b6113bd816113a8565b82525050565b600060a0830160008301516113db6000860182611188565b5060208301516113ee6020860182611188565b50604083015184820360408601526114068282611356565b915050606083015161141b6060860182611399565b50608083015161142e60808601826113b4565b508091505092915050565b600061144583836113c3565b905092915050565b6000602082019050919050565b6000611465826112d3565b61146f81856112de565b935083602082028501611481856112ef565b8060005b858110156114bd578484038952815161149e8582611439565b94506114a98361144d565b925060208a01995050600181019050611485565b50829750879550505050505092915050565b600060408201905081810360008301526114e9818561145a565b905081810360208301526114fd818461145a565b90509392505050565b600080fd5b600080fd5b7f4e487b7100000000000000000000000000000000000000000000000000000000600052604160045260246000fd5b61154882611345565b810181811067ffffffffffffffff8211171561156757611566611510565b5b80604052505050565b600061157a611266565b9050611586828261153f565b919050565b600067ffffffffffffffff8211156115a6576115a5611510565b5b6115af82611345565b9050602081019050919050565b82818337600083830152505050565b60006115de6115d98461158b565b611570565b9050828152602081018484840111156115fa576115f961150b565b5b6116058482856115bc565b509392505050565b600082601f83011261162257611621611506565b5b81356116328482602086016115cb565b91505092915050565b6000806040838503121561165257611651611270565b5b600061166085828601611291565b925050602083013567ffffffffffffffff81111561168157611680611275565b5b61168d8582860161160d565b9150509250929050565b7f4e487b7100000000000000000000000000000000000000000000000000000000600052603260045260246000fd5b600082825260208201905092915050565b7f72656365697665722063616e206e6f7420626520796f757273656c6600000000600082015250565b600061170d601c836116c6565b9150611718826116d7565b602082019050919050565b6000602082019050818103600083015261173c81611700565b9050919050565b7f4e487b7100000000000000000000000000000000000000000000000000000000600052602260045260246000fd5b6000600282049050600182168061178a57607f821691505b60208210810361179d5761179c611743565b5b50919050565b7f43616e6e6f742073656e64206d65737361676520746f20796f757273656c6600600082015250565b60006117d9601f836116c6565b91506117e4826117a3565b602082019050919050565b60006020820190508181036000830152611808816117cc565b9050919050565b7f4e6f2074726f6c6c210000000000000000000000000000000000000000000000600082015250565b60006118456009836116c6565b91506118508261180f565b602082019050919050565b6000602082019050818103600083015261187481611838565b9050919050565b60008190508160005260206000209050919050565b60006020601f8301049050919050565b600082821b905092915050565b6000600883026118dd7fffffffffffffffffffffffffffffffffffffffffffffffffffffffffffffffff826118a0565b6118e786836118a0565b95508019841693508086168417925050509392505050565b6000819050919050565b600061192461191f61191a8461138f565b6118ff565b61138f565b9050919050565b6000819050919050565b61193e83611909565b61195261194a8261192b565b8484546118ad565b825550505050565b600090565b61196761195a565b611972818484611935565b505050565b5b818110156119965761198b60008261195f565b600181019050611978565b5050565b601f8211156119db576119ac8161187b565b6119b584611890565b810160208510156119c4578190505b6119d86119d085611890565b830182611977565b50505b505050565b600082821c905092915050565b60006119fe600019846008026119e0565b1980831691505092915050565b6000611a1783836119ed565b9150826002028217905092915050565b611a30826112ff565b67ffffffffffffffff811115611a4957611a48611510565b5b611a538254611772565b611a5e82828561199a565b600060209050601f831160018114611a915760008415611a7f578287015190505b611a898582611a0b565b865550611af1565b601f198416611a9f8661187b565b60005b82811015611ac757848901518255600182019150602085019450602081019050611aa2565b86831015611ae45784890151611ae0601f8916826119ed565b8355505b6001600288020188555050505b505050505050565b7f4e487b7100000000000000000000000000000000000000000000000000000000600052601160045260246000fd5b6000611b338261138f565b9150611b3e8361138f565b9250828203905081811115611b5657611b55611af9565b5b92915050565b611b658161138f565b82525050565b6000602082019050611b806000830184611b5c565b92915050565b6000611b918261138f565b91507fffffffffffffffffffffffffffffffffffffffffffffffffffffffffffffffff8203611bc357611bc2611af9565b5b60018201905091905056fea2646970667358221220c537b440ffaf78a9f7ecebf8e89dfe3029a9397fdc3bdb2e815eea6b6c4c9d0464736f6c63430008180033",
  "linkReferences": {},
  "deployedLinkReferences": {}
}